:100000000C9434000C945C000C9480000C9451000F
:100010000C9451000C9451000C9451000C9451001C
:100020000C9451000C9451000C9451000C9451000C
:100030000C9451000C9451000C9451000C945100FC
:100040000C9451000C9451000C9451000C945100EC
:100050000C9451000C9451000C9451000C945100DC
:100060000C9451000C94510011241FBECFEFD8E026
:10007000DEBFCDBF11E0A0E0B1E0ECEBF5E002C0E7
:1000800005900D92AE32B107D9F721E0AEE2B1E0B2
:1000900001C01D92A633B207E1F70E9463010C94E0
:1000A000DC020C9400001AB88CE08BB983E08DBBA5
:1000B0008FE08093690008951F920F920FB60F9200
:1000C00011242F938F939F9380910401813021F00D
:1000D00086958093040103C081E0809304012FEF93
:1000E00080E792E0215080409040E1F700C000009E
:1000F0009F918F912F910F900FBE0F901F90189589
:100100001F920F920FB60F9211242F938F939F93EC
:1001100080910401803821F0880F8093040103C08E
:1001200080E8809304012FEF80E792E02150804027
:100130009040E1F700C000004B99FECF9F918F9156
:100140002F910F900FBE0F901F9018956130B9F44A
:10015000823079F028F4882341F0813041F008950D
:10016000863049F0803449F0089581E0089580E8B0
:10017000089583E0089587E0089580EC0895803421
:1001800059F018F4882331F00895803639F080381A
:1001900039F0089580E8089580EC089580EE089580
:1001A00080EE08950F931F93CF93DF936091040126
:1001B000C62FC695C62B862F880FC82BC0956C2BD3
:1001C00060932E0181E00E94D5010FE211E0D1E0A1
:1001D000C0950E94690281709078992324F4019758
:1001E0008E6F9F6F0196682F813019F48C2F880FC6
:1001F00002C08C2F86950E94A600C82FC095F801DA
:10020000C1938F01DF5F6C2F8D2F0E94D501FFEF0F
:1002100025EA8EE0F15020408040E1F700C0000068
:10022000D830B1F68EE291E0DF91CF911F910F911E
:100230000895EF92FF920F931F93CF93DF93CDB763
:10024000DEB728970FB6F894DEBF0FBECDBF88E0AB
:10025000E5E2F1E0DE01119601900D928A95E1F759
:1002600005E01EC0F70162917F01812F0E94D50138
:100270001150C1F7FFEF29E688E1F150204080409E
:10028000E1F700C000000E9412029FEFE9E6F8E1EA
:100290009150E040F040E1F700C00000015031F023
:1002A0007E0129E0E20EF11C18E0DCCF28960FB6A3
:1002B000F894DEBF0FBECDBFDF91CF911F910F919C
:1002C000FF90EF9008950E94530078940E94CA0115
:1002D0000E94F0010E94120280E0F12C811103C003
:1002E0000E94D2008C01D2E0C1E002C0CF5FDF5F8C
:1002F000F801EC0FF11D608131976083C13039F452
:1003000080910401682B81E00E94D501EFCF8C2FF2
:100310000E94D501D83050F3F801908180910401FA
:10032000892331F10E9419018F2D18C0C03849F07E
:1003300061E08C2F880F0E94A600C82F07C0C13033
:1003400029F08C2F86950E94A600C82F6C2F6095EF
:10035000F801678388E00E94D50181E0FFEF24E384
:100360003CE0F15020403040E1F700C00000B6CF43
:10037000F8016781C62FC0950E946902817090784C
:10038000992324F401978E6F9F6F0196682F813017
:10039000B1F6CCCF8CE284B981E58CBD1DBC08954B
:1003A0008EBD0DB407FEFDCF0895CF93C62F95B136
:1003B000947095B92D9A0E94D00185B1807285B94B
:1003C0002D9A8C2F0E94D00185B1807285B92A9A0E
:1003D00087E893E10197F1F700C00000CF910895FD
:1003E00060E089E00E94D50167E08BE00E94D501C2
:1003F00061E08CE00E94D50164E08AE00E94D501B2
:1004000061E08FE00E94D5012FE78AE196E021505C
:1004100080409040E1F700C0000060E08FE00E9463
:10042000D5010895CF93C0E060E08C2F0E94D501E4
:10043000CF5FC930C9F7CF9108958F929F92AF9245
:10044000BF92CF92DF92EF92FF92CF93DF93EC01B6
:10045000688179818A819B8161157105810591058A
:1004600021F464E279ED8BE597E02DE133EF41E093
:1004700050E00E94790249015A019B01AC01A7EAB0
:10048000B1E40E9498026B017C01ACEEB4EFA501CF
:1004900094010E94A602DC01CB018C0D9D1DAE1DB6
:1004A000BF1DB7FF03C00197A109B0488883998396
:1004B000AA83BB839F77DF91CF91FF90EF90DF906E
:1004C000CF90BF90AF909F908F9008950E941D0293
:1004D000089580E091E00E941D020895A0E0B0E040
:1004E0008093000190930101A0930201B093030156
:1004F0000895052E97FB1EF400940E94900257FD6C
:1005000007D00E94AB0207FC03D04EF40C9490027B
:1005100050954095309521953F4F4F4F5F4F08952F
:1005200090958095709561957F4F8F4F9F4F08955F
:100530000E94CD02A59F900DB49F900DA49F800DA9
:10054000911D11240895B7FF0C9498020E949802FF
:10055000821B930B0895A1E21A2EAA1BBB1BFD015F
:100560000DC0AA1FBB1FEE1FFF1FA217B307E40792
:10057000F50720F0A21BB30BE40BF50B661F771FEA
:10058000881F991F1A9469F76095709580959095CA
:100590009B01AC01BD01CF010895A29FB001B39FA3
:1005A000C001A39F700D811D1124911DB29F700D7C
:0C05B000811D1124911D0895F894FFCFC7
:1005BC000100000008000000181800000000003CBA
:1005CC0024243C0000007E425A5A427E00FF81BD2A
:0E05DC00A5A5BD81FF8142241818244281008C
:00000001FF
