S00C000044726F702E7372656383
S11300000C9434000C945C000C9480000C9451000B
S11300100C9451000C9451000C9451000C94510018
S11300200C9451000C9451000C9451000C94510008
S11300300C9451000C9451000C9451000C945100F8
S11300400C9451000C9451000C9451000C945100E8
S11300500C9451000C9451000C9451000C945100D8
S11300600C9451000C94510011241FBECFEFD8E022
S1130070DEBFCDBF11E0A0E0B1E0E4E3F6E002C0F2
S113008005900D92AE32B107D9F721E0AEE2B1E0AE
S113009001C01D92A633B207E1F70E9495010C94AA
S11300A018030C9400001AB88CE08BB983E08DBB64
S11300B08FE08093690008951F920F920FB60F92FC
S11300C011242F938F939F9380910401813021F009
S11300D086958093040103C081E0809304012FEF8F
S11300E080E792E0215080409040E1F700C000009A
S11300F09F918F912F910F900FBE0F901F90189585
S11301001F920F920FB60F9211242F938F939F93E8
S113011080910401803821F0880F8093040103C08A
S113012080E8809304012FEF80E792E02150804023
S11301309040E1F700C000009F918F912F910F90A4
S11301400FBE0F901F9018956130B9F4823079F08A
S113015028F4882341F0813041F00895863049F035
S1130160803449F0089581E0089580E8089583E09B
S1130170089587E0089580EC0895803459F018F4C8
S1130180882331F00895803639F0803839F00895A5
S113019080E8089580EC089580EE089580EE089537
S11301A00F931F93CF93DF9360910401C62FC695DD
S11301B0C62B962F990FC92BC095813099F56C2BBE
S11301C060932E010E9411020FE211E0D1E0C0956C
S11301D00E94A50281709078992324F401978E6F70
S11301E09F6F0196682F813019F48C2F880F02C0FD
S11301F08C2F86950E94A400C82FC095F801C19346
S11302008F01DF5F6C2F8D2F0E941102FFEF22E51B
S113021087E0F15020408040E1F700C00000D83072
S1130220B1F632C06C2B6093350188E00E94110254
S113023005E311E0D7E0C0950E94A5028170907893
S1130240992324F401978E6F9F6F0196682F813054
S113025019F48C2F880F02C08C2F86950E94A4005D
S1130260C82FC095F801C2938F016C2F8D2F0E9467
S11302701102FFEF22E587E0F15020408040E1F7D2
S113028000C00000D150B9F68EE291E0DF91CF9129
S11302901F910F910895EF92FF920F931F93CF93A5
S11302A0DF93CDB7DEB728970FB6F894DEBF0FBE45
S11302B0CDBF88E0E5E2F1E0DE01119601900D92F8
S11302C08A95E1F705E01EC0F70162917F01812F55
S11302D00E9411021150C1F7FFEF29E688E1F150A5
S11302E020408040E1F700C000000E944E029FEFD2
S11302F0E9E6F8E19150E040F040E1F700C0000089
S1130300015031F07E0129E0E20EF11C18E0DCCF4F
S113031028960FB6F894DEBF0FBECDBFDF91CF9104
S11303201F910F91FF90EF9008950E9453007894CD
S11303300E9406020E942C020E944E0280E081115B
S113034051C00E94D0008C01D7E0C8E002C0C15067
S1130350D1508C2F90E0FC013197E00FF11F2081E8
S1130360D801A80FB91F2C93C83039F46091040147
S1130370622B88E00E941102EACF60818C2F0E94D8
S11303801102D111E4CFF8019781809104018923EE
S113039061F10E944B0180E01BC0C03889F061E02C
S11303A08C2F880F0E94A400C82F0AC0811108C096
S11303B0C13031F060E08C2F86950E94A400C82FD4
S11303C06C2F6095F801608381E00E94110281E046
S11303D0FFE72AE136E0F15020403040E1F700C069
S11303E00000ADCF8130A1F7AFCFF8016081C62FF7
S11303F0C0950E94A50281709078992324F40197F6
S11304008E6F9F6F0196813089F6C7CF8CE284B9D5
S113041081E58CBD1DBC08958EBD0DB407FEFDCFD6
S11304200895CF93C62F95B1947095B92D9A0E94D3
S11304300C0285B1807285B92D9A8C2F0E940C0212
S113044085B1807285B92A9A87E893E10197F1F71B
S113045000C00000CF91089560E089E00E9411027D
S113046067E08BE00E94110261E08CE00E941102BF
S113047064E08AE00E94110261E08FE00E941102B0
S11304802FE78AE196E0215080409040E1F700C0D8
S1130490000060E08FE00E9411020895CF93C0E055
S11304A060E08C2F0E941102CF5FC930C9F7CF9151
S11304B008958F929F92AF92BF92CF92DF92EF9264
S11304C0FF92CF93DF93EC01688179818A819B81CC
S11304D0611571058105910521F464E279ED8BE5DF
S11304E097E02DE133EF41E050E00E94B50249016D
S11304F05A019B01AC01A7EAB1E40E94D4026B014A
S11305007C01ACEEB4EFA50194010E94E202DC018F
S1130510CB018C0D9D1DAE1DBF1DB7FF03C0019700
S1130520A109B04888839983AA83BB839F77DF910D
S1130530CF91FF90EF90DF90CF90BF90AF909F90BE
S11305408F9008950E945902089580E091E00E94DE
S113055059020895A0E0B0E0809300019093010156
S1130560A0930201B09303010895052E97FB1EF496
S113057000940E94CC0257FD07D00E94E70207FCBA
S113058003D04EF40C94CC025095409530952195AF
S11305903F4F4F4F5F4F08959095809570956195AB
S11305A07F4F8F4F9F4F08950E940903A59F900D81
S11305B0B49F900DA49F800D911D11240895B7FF41
S11305C00C94D4020E94D402821B930B0895A1E2DE
S11305D01A2EAA1BBB1BFD010DC0AA1FBB1FEE1FB9
S11305E0FF1FA217B307E407F50720F0A21BB30B04
S11305F0E40BF50B661F771F881F991F1A9469F780
S113060060957095809590959B01AC01BD01CF01DB
S11306100895A29FB001B39FC001A39F700D811DD7
S11306201124911DB29F700D811D1124911D0895F7
S1070630F894FFCF68
S11306340100000008000000181800000000003C3D
S113064424243C0000007E425A5A427E00FF81BDAD
S1110654A5A5BD81FF8142241818244281000F
S9030000FC
